:0400000081EF00F09C
:10000800E608E608E608E6084000E6084000E608D4
:10001800E608E608E608E608E608E608E608E60868
:10002800E608400040004000E608E608E608E60862
:10003800E608E608E608E608E608E608E608E60848
:10004800E608E608E608E60840004000E608E60894
:10005800E608E608E6084000E608E608E608E608D6
:10006800E608E608E608E608E608E608E608E60818
:10007800E608E608E608E6084000E608E608E608B6
:10008800E608E608E608E608E608E608E608E608F8
:10009800E608E608E608E6084000E60840004000F2
:1000A800E608E608E608E608E608E608E608E608D8
:1000B800E608E608E608E608E608E608E608E608C8
:1000C800E608E608E608E608E608E608E608E608B8
:1000D800E608E608E608E608E608E608E608E608A8
:1000E8004000E608E608E6084000400040004000FE
:1000F800E608E608E608E608FF00E9EF05F052C65C
:1001080089F553C68AF5560E05018B6F060E8C6F5E
:1001180007ECFBF00601586F5851D8A496EF00F091
:1001280098EF00F0F4EF00F054515511D8A49FEF68
:1001380000F0A1EF00F0B3EF00F052C60CF653C682
:100148000DF6000E0E6F000E0F6F000E106F000EF2
:10015800116F9AECC5F00601586FF4EF00F052C623
:1001680045F653C646F6000E486F000E476FE5EC9D
:10017800E4F00601586F040E5819D8A4C6EF00F031
:10018800C8EF00F0CAEF00F0000E586F5851D8A41D
:10019800D0EF00F0D2EF00F0F4EF00F052C615F502
:1001A80053C616F554C617F555C618F569ECDEF0B2
:1001B80052C62BF653C62CF6000E06012E6F000E03
:1001C8002D6FBAECC1F00601586F040E5819D8A467
:1001D800F0EF00F0F2EF00F0F4EF00F0000E586FCF
:1001E8005851120056500701E61907E15750E71910
:1001F800D8A401EF01F003EF01F00EEF01F0355143
:100208003611D8A40AEF01F00CEF01F00EEF01F05F
:1002180068EF01F05650E61909E15750E719D8B4CC
:1002280018EF01F01AEF01F022EF01F056C520F5A2
:1002380057C521F5ADEC07F040EF01F05650266E9A
:100248005750276E286A296A27C529F526C528F533
:10025800276A266A26C514F527C515F528C516F593
:1002680029C517F5220E186EE50E196E000E1B6EC5
:10027800B50E1A6E14EC0CF00701E651266EE75124
:10028800276E286A296A27C529F526C528F5276A09
:10029800266A9F0E2624146E000E2720156E000E67
:1002A8002820166E000E2920176E570E186E070E9E
:1002B800196E000E1B6E160E1A6E14EC0CF0000E62
:1002C8000701366F000E356F1200C5EC15F0950E5C
:1002D8000501716FF70E726F02D87EEF01F005000D
:1002E800FA6E0801B751FD6EB851FE6EB951FF6E36
:1002F800FA50120008C573F509C574F579EC15F0C4
:10030800A2EC11F00601BCBF8EEF01F08CEF01F0FA
:1003180090EF01F08EEF01F0FFEC16F066ECDDF0E7
:10032800E9EC16F0A780D68E000E06016A6F000E63
:100338006B6F000E6C6F000E6D6FC50E6E6FE30E67
:100348006F6F010E716F5D0E706F65ECDFF0A5ECDD
:10035800AFF00701EDBFB5EF01F0B3EF01F0B7EF74
:1003680001F0B5EF01F0630E0501716FF00E726FC9
:1003780079EC15F0170E0501716FE90E726F79ECC3
:1003880015F019EC16F002D8D5EF01F00500FA6E59
:100398000701BF51FD6EC051FE6EC151FF6EFA508C
:1003A800120000EC80F0C7EF01F081EF00F051C6B9
:1003B800D9F452C6DAF4DEC453F6DDC454F651C695
:1003C80045F652C646F6000E0601486F010E476F05
:1003D800FAECF6F00601556F5551D8A4F6EF01F086
:1003E800F8EF01F04AEF02F053C6E2F554C6E3F520
:1003F80020EE16F05151D9265251DA22DEC4E4F526
:10040800DEC4E5F5DEC4E6F5DEC4E7F55BEC04F032
:100418000601556F5551D8A414EF02F016EF02F0FB
:100428004AEF02F020EE1AF05151D9265251DA2241
:10043800DEC408F5DDC409F5000E0B6E000E0A6E69
:10044800000E0D6E200E0C6EA2ECF0F0060120EEF0
:100458001AF05151D9265251DA22DEC408F5DDC40A
:1004680009F51C0E51250A6E000E52210B6E000E66
:100478000D6E0B0E0C6E1DEC12F0060120EE04F052
:100488005351D9265451DA22010EDF6E555112000C
:100498000A6EB70EF66EDF0EF76E000EF86E0900E4
:1004A800F5500A5CD8A05BEF02F05DEF02F0B7EF01
:1004B80002F0B80EF66EDF0EF76E000EF86E0A50F8
:1004C8000900F55CD8A06BEF02F06DEF02F073EF56
:1004D80002F0000E096E010E086EBBEF02F0B90EB5
:1004E800F66EDF0EF76E000EF86E0900F5500A5C26
:1004F800D8A081EF02F083EF02F095EF02F0BA0E78
:10050800F66EDF0EF76E000EF86E0A500900F55C05
:10051800D8A091EF02F093EF02F095EF02F06DEFA3
:1005280002F0BB0EF66EDF0EF76E000EF86E0900D5
:10053800F5500A5CD8A0A3EF02F0A5EF02F0B7EFE0
:1005480002F0BC0EF66EDF0EF76E000EF86E0A5063
:100558000900F55CD8A0B3EF02F0B5EF02F0B7EFF1
:1005680002F06DEF02F0000E096E000E086E120028
:10057800070123512411D8A4C4EF02F0C6EF02F0FA
:10058800CCEF02F023C71AF524C71BF5D2EF02F00F
:10059800FF0E23251A6EFF0E24211B6E58A0D7EFDD
:1005A80002F0D9EF02F0E2EF02F016C50BF50C6A83
:1005B80014C50DF515C50EF5C1EC04F01BBEE7EF2B
:1005C80002F0E9EF02F0EBEF02F0EFEF02F0000EBD
:1005D8001B6E000E1A6E000E196E000E186E01EFDB
:1005E80003F0000E0C6E200E0B6E14C50DF515C52C
:1005F8000EF5C1EC04F0184A192A1A50185C195063
:10060800800A176E1B50800A1758D8A00EEF03F007
:1006180010EF03F0F5EF02F058B015EF03F017EF05
:1006280003F020EF03F016C50BF50C6A14C50DF5A1
:1006380015C50EF5C1EC04F0010E1824146E000E59
:100648001920156E120008C510F509C511F50AC55F
:1006580012F50BC513F538EF03F00C06D8A00D06FC
:10066800104A112A124A132A0C500D10D8B43FEF21
:1006780003F041EF03F060EF03F010C5D9F411C5A2
:10068800DAF4DF500E6E12C5F6F413C5F7F4000E57
:10069800F86E250EF76403D00800F55005D0F6C4AF
:1006A800E9F4F7C4EAF4EF500E18D8B45EEF03F09B
:1006B80060EF03F031EF03F00C500D10D8A467EF92
:1006C80003F069EF03F06FEF03F0000E096E000E00
:1006D800086E8DEF03F010C5D9F411C5DAF4DF50B8
:1006E8000E6E12C5F6F413C5F7F4000EF86E250E5B
:1006F800F76403D00800F55005D0F6C4E9F4F7C450
:10070800EAF4EF500F6E0F500E5C086E096AD8A01D
:1007180009061200000E166E000E156E0EC5D9F4ED
:100728000FC5DAF4DEC4F6F4DDC4F7F4000EF86E93
:100738000800F5502A0AD8A4A4EF03F0A6EF03F0A6
:10074800DAEF03F00EC5D9F40FC5DAF4DE2A000E8D
:10075800DD2210C5D9F411C5DAF4DFC412F5020E92
:10076800DE26DFC413F5000EDD2212C5D9F413C549
:10077800DAF4DEC415F5DDC416F5F0EF03F015C59F
:1007880008F516C509F5000E0B6E0A0E0A6EA0ECE8
:1007980015F014500824156E000E0920166E0EC5AB
:1007A800D9F40FC5DAF4DE2A000EDD220EC5D9F41D
:1007B8000FC5DAF4DEC4F6F4DDC4F7F4000EF86E03
:1007C8000800F550D00F146E090E1464EEEF03F014
:1007D800F0EF03F0C3EF03F015C50EF516C50FF5DE
:1007E8001200020E165E000E175A185A195A20EEF9
:1007F80014F01450D9261550DA22FE0EDE241A6E93
:10080800FF0EDE201B6EFF0EDE201C6EFF0EDE20AC
:100818001D6E1A50165C1B5017581C5018581D5046
:100828001958D8A01AEF04F01CEF04F026EF04F0D2
:10083800000E146E000E156E000E166E000E176E6A
:100848005AEF04F020EE28F01450D9261550DA2279
:10085800DEC41AF5DEC41BF5DEC41CF5DEC41DF5C6
:1008680020EE0AF01450D9261550DA22DEC41EF5FF
:10087800DDC41FF51EC508F51FC509F50A6A0B6A10
:1008880016C50CF517C50DF518C50EF519C50FF5E4
:100898006EEC0EF01A500824146E1B500920156EC9
:1008A8001C500A20166E1D500B20176E1200000EE9
:1008B8000501EC6F20EE2CF0E251D926E351DA2243
:1008C800E451DE180FE1E551DE180CE1E651DE18BF
:1008D80009E1E751DE18D8B474EF04F076EF04F0BC
:1008E800BFEF04F0E2C5CFF5E3C5D0F55BECE7F068
:1008F8000501EC6FEC51D8A484EF04F086EF04F006
:10090800BFEF04F0300EE225C56F000EE321C66F7D
:10091800E4C5C7F5E5C5C8F5E6C5C9F5E7C5CAF52F
:10092800000ECC6F010ECB6F20EE01F0E251D926FC
:10093800E351DA22DF50CFECF2F00009D8B4A7EF88
:1009480004F0A9EF04F0B0EF04F00501E469E569EB
:10095800E669E769010EEC6F050120EE2CF0E25123
:10096800D926E351DA22E4C5DEF4E5C5DEF4E6C5AE
:10097800DEF4E7C5DEF4EC5112000D500E10D8B4C9
:10098800C8EF04F0CAEF04F0D3EF04F00D500E10D6
:10099800D8A4D1EF04F0D3EF04F0D8EF04F00B5053
:1009A8005EEC16F025EF05F020EE0AF00D50D92682
:1009B8000E50DA22DE50DE10D8B4E5EF04F0E7EF8F
:1009C80004F002EF05F020EE0AF00D50D9260E5083
:1009D800DA2210EE03F00D50E1260E50E222DE502E
:1009E800E65CE650800A136EDE50800A1358D8B0D1
:1009F80000EF05F002EF05F025EF05F020EE03F01B
:100A08000D50D9260E50DA22DEC40FF5DDC410F5DC
:100A18000DC5D9F40EC5DAF4DEC411F5DDC412F53E
:100A28000F501124D96E10501220DA6E0BC5DFF466
:100A380020EE03F00D50D9260E50DA22DE2A000EE1
:100A4800DD2212000AC513F50BC514F50C5013244A
:100A5800116E0D501420126E78EF05F0085009C57C
:100A68000EF50F6E0E50086E0FC509F513C5D9F4B3
:100A780014C5DAF4DF500E6E0E50081A134A142A01
:100A880008C50EF509C50FF5040E106ED8900F3283
:100A98000E32102E4AEF05F00F0E0E16000E0F162E
:100AA8000E50081A0F50091A08C50EF509C50FF59A
:100AB8000C0ED8900E360F36E82E5DEF05F00E506E
:100AC800081A0F50091AFF0E08140E6E000E0914AA
:100AD8000F6E050ED8900E360F36E82E6EEF05F025
:100AE8000E50081A0F50091A1150135C125014585E
:100AF800D8A081EF05F083EF05F032EF05F008C5C7
:100B080008F509C509F5120058A08DEF05F08FEF1B
:100B180005F099EF05F01DC514F51EC515F51BC5A3
:100B280016F51CC517F564EC13F020BE9EEF05F012
:100B3800A0EF05F0A6EF05F01FC524F520C525F5A3
:100B4800AAEF05F0000E256E000E246E000E236E2F
:100B5800000E226EBCEF05F0000E0C6E200E0B6E20
:100B68001BC50DF51CC50EF5C1EC04F0224A232A5D
:100B78002450225C2350800A216E2550800A215877
:100B8800D8A0C9EF05F0CBEF05F0B0EF05F058B0ED
:100B9800D0EF05F0D2EF05F0DCEF05F01DC514F538
:100BA8001EC515F51BC516F51CC517F564EC13F025
:100BB8001DC508F51EC509F545EC12F0245008249A
:100BC8001B6E255009201C6E1200260EF66E250E8F
:100BD800F76E000EF86E02EE5EF010EE47F00900B8
:100BE800F5C4EEF4E550E150FAE1780EF66E2D0EFC
:100BF800F76E000EF86E01EEDAF310EE12F009004F
:100C0800F5C4EEF4E550E150FAE103EE00F014EE1D
:100C1800FCF0EE6AE550E150FCE1E250FAE102EE48
:100C280000F310EE00F1EE6AE550E150FCE1E2500D
:100C3800FAE102EE00F2B00EEE6AE806FDE102EE1D
:100C480000F1D00EEE6AE806FDE102EE00F05E0E5D
:100C5800EE6AE806FDE101EE00F3A10EEE6AE80691
:100C6800FDE10601FF6B01EE52F1070EEE6AE806A0
:100C7800FDE10401080E5D6F000E5E6F000E5F6FF0
:100C8800000169EF01F020EE03F00850D926095061
:100C9800DA22DF500C6E0C50116E126A136A146A55
:100CA80020EE02F00850D9260950DA22DF500C6EE7
:100CB8000C5011C50EF512C50FF513C510F50D6AC8
:100CC8000D10116E0E50126E0F50136E1050146EE0
:100CD80020EE01F00850D9260950DA22DF500C6EB8
:100CE8000C5011C50EF512C50FF513C510F50D6A98
:100CF8000D10116E0E50126E0F50136E1050146EB0
:100D080008C5D9F409C5DAF4DF500C6E0C5011C5CA
:100D18000EF512C50FF513C510F50D6A0D10116EFD
:100D28000E50126E0F50136E1050146E11C508F548
:100D380012C509F513C50AF514C50BF51200256E81
:100D480000C72DF501C72EF525504009266E22C58E
:100D580027F521C528F520C529F51FC52AF5260E32
:100D6800086E050E096E000E0B6E050E0A6ED0ECAD
:100D78000AF001092B6E2DC50CF52EC50DF5E7EC13
:100D880015F02DC512F52EC513F5000E156E010EC2
:100D9800146ECAEC10F02DC508F52EC509F5260EFF
:100DA8000A6E050E0B6E000E0D6E060E0C6EE9EC4B
:100DB80008F002C719F503C71AF5FF0EFDEC12F08B
:100DC8002C6E23C5D9F424C5DAF42CC5DFF42C28FD
:100DD800D8A4F1EF06F0F3EF06F0F9EF06F0000EF5
:100DE800206E010E1F6EFDEF06F0000E206E000E45
:100DF8001F6E12004F6E010E506E15EF07F0000EB9
:100E0800506E37EF07F02E0E716FEC0E726F4FC5F4
:100E180073F5746B89C575F5766B79EC15F037EF5A
:100E280007F0050189514D6E4E6A4E50000AD8B43C
:100E380020EF07F007EF07F04D50000AD8B403EF92
:100E480007F0010AD8B407EF07F0030AD8B407EF90
:100E580007F0010AD8B407EF07F0070AD8B407EF7C
:100E680007F007EF07F052505310D8B43EEF07F0E1
:100E780040EF07F056EF07F0210E0501716FEA0EFB
:100E8800726F4FC573F5746B89C575F5766B8AC536
:100E980077F58BC578F5796B7A6B50C57BF57C6BEC
:100EA80079EC15F0505012000701E429E511D8B487
:100EB80060EF07F062EF07F064EF07F00BEC0FF05C
:100EC8002050226E2150236E246A256A23C525F5F9
:100ED80022C524F5236A226A660E2224146E000EA7
:100EE8002320156E000E2420166E000E2520176E86
:100EF800970E186E070E196E000E1B6E030E1A6EF3
:100F0800D4EC0BF02050226E2150236E246A256AFF
:100F180023C525F522C524F5236A226A660E2224F4
:100F2800146E000E2320156E000E2420166E000E7F
:100F38002520176E880E186EE50E196E000E1B6EB2
:100F4800030E1A6E14EC0CF020C5E4F721C5E5F782
:100F580012000701E629E711D8B4B5EF07F0B7EF9B
:100F680007F0B9EF07F09BEC10F02050226E2150EB
:100F7800236E246A256A23C525F522C524F5236A2C
:100F8800226A22C514F523C515F524C516F525C50D
:100F980017F5000E186E0B0E196E010E1B6E000E63
:100FA8001A6ED4EC0BF02050226E2150236E246A66
:100FB800256A23C525F522C524F5236A226A22C598
:100FC80014F523C515F524C516F525C517F5220E04
:100FD800186EE50E196E000E1B6EB50E1A6E14EC27
:100FE8000CF020C5E6F721C5E7F7000E0701366FBC
:100FF800000E356F1200000E106E000E116E000EFE
:10100800126E000E136E0C500D100E100F10D8B487
:1010180010EF08F012EF08F048EF08F0010E146E18
:101028001CEF08F0D8900C360D360E360F36142A01
:101038000FAE21EF08F023EF08F016EF08F0D89074
:1010480010361136123613360C50085C0D500958FC
:101058000E500A580F500B58D8A035EF08F037EF4C
:1010680008F040EF08F00C50085E0D50095A0E5079
:101078000A5A0F500B5A1080D8900F320E320D3288
:101088000C32142E23EF08F010C508F511C509F528
:1010980012C50AF513C50BF512000A6EB30EF66EEB
:1010A800DF0EF76E000EF86E0900F5500A5CD8A046
:1010B80060EF08F062EF08F09AEF08F0B40EF66EF1
:1010C800DF0EF76E000EF86E0A500900F55CD8A026
:1010D80070EF08F072EF08F078EF08F0000E096E74
:1010E800010E086E9EEF08F0B50EF66EDF0EF76E75
:1010F800000EF86E0900F5500A5CD8A086EF08F0DB
:1011080088EF08F09AEF08F0B60EF66EDF0EF76E6D
:10111800000EF86E0A500900F55CD8A096EF08F0AA
:1011280098EF08F09AEF08F072EF08F0000E096ED9
:10113800000E086E12004D6E0701EB51D8B4A7EFF0
:1011480008F0A9EF08F0B4EF08F0AA0E4D18D8B4CB
:10115800B0EF08F0B2EF08F0B4EF08F0E8EF08F0ED
:10116800AA0E4D18D8A4BBEF08F0BDEF08F0C1EFE8
:1011780008F0000EEB6FE8EF08F04DACC6EF08F092
:10118800C8EF08F0D4EF08F0DD0E0501716FF10E1D
:10119800726F000E746FA00E736F79EC15F0FF007C
:1011A8004DAED9EF08F0DBEF08F0E8EF08F02C0EB1
:1011B8000501716FF20E726F000E746FA00E736FDF
:1011C80079EC15F0E6EF08F012000AC510F50BC52A
:1011D80011F50C500D10D8A4F4EF08F0F6EF08F054
:1011E800F8EF08F032EF09F00D500001836F0CC5DD
:1011F80082F010C5D9F411C5DAF4DF50816F104AB6
:10120800112A000E0F6E010E0E6E1EEF09F010C5AA
:10121800D9F411C5DAF4DF50816F104A112AB1A050
:1012280018EF09F01AEF09F013EF09F000018051E7
:101238000E4A0F2A0C500E5C0D500F58D8A027EFFD
:1012480009F029EF09F00BEF09F0B1A02EEF09F032
:1012580030EF09F029EF09F0000180511200BE9229
:1012680008C512F509C513F513C5C1F412C5BFF4B5
:10127800000E116E000E106E6DEF09F0BE9A105040
:101288000A240E6E11500B200F6E0EC5F6F40FC512
:10129800F7F4000EF86E250EF76404D0D3C4F5F405
:1012A8000C0006D0F6C4E9F4F7C4EAF4D3C4EFF4AA
:1012B800BE8A122A12C5BFF41250D8A466EF09F0EC
:1012C80068EF09F06BEF09F0132A13C5C1F4104A4F
:1012D800112A0C50105C0D501158D8A076EF09F067
:1012E80078EF09F042EF09F0BE821200BE9208C5FD
:1012F80012F509C513F513C5C1F412C5BFF4000EE4
:10130800116E000E106EB3EF09F0C09A10500A2447
:101318000E6E11500B200F6E0EC5F6F40FC5F7F4C4
:10132800000EF86E250EF76403D00800F55005D0BE
:10133800F6C4E9F4F7C4EAF4EF50C36EC08A122A7F
:1013480012C5BFF41250D8A4ACEF09F0AEEF09F003
:10135800B1EF09F0132A13C5C1F4104A112A0C5031
:10136800105C0D501158D8A0BCEF09F0BEEF09F081
:1013780089EF09F0BE8212009BEC10F00BEC0FF025
:10138800070169516A11D8A4CCEF09F0CEEF09F032
:10139800F6EF09F056C51CF557C51DF5DAEC12F045
:1013A8005650226E5750236E246A256A23C525F5A8
:1013B80022C524F5236A226A0B0E2224146E000E1D
:1013C8002320156E000E2420166E000E2520176EA1
:1013D800A40E186EE60E196E000E1B6E010E1A6E24
:1013E80014EC0CF007014D514E11D8B4FEEF09F082
:1013F80000EF0AF004EF0AF0000E506F010E4F6F75
:101408001200D69E070147514811D8B40EEF0AF0D2
:1014180010EF0AF031EF0AF0600E4525D96E0A0E7A
:101428004621DA6EDF500E6E010E4525086E000E5D
:101438004621096E000E0B6E500E0A6ED5EC0FF0A9
:1014480008C545F709C546F707014707D8A0480763
:10145800A780D68E0E5049EF0AF04F515011D8B4DC
:1014680038EF0AF03AEF0AF03EEF0AF0D68E000E97
:1014780049EF0AF0D68E150E0D6EC60EE82EFED771
:101488000D2EFCD700D005EF0AF012000C500D10FD
:101498000E100F10D8B453EF0AF055EF0AF085EF8D
:1014A8000AF0010E106E5FEF0AF0D8900C360D3678
:1014B8000E360F36102A0FAE64EF0AF066EF0AF008
:1014C80059EF0AF00C50085C0D5009580E500A5894
:1014D8000F500B58D8A073EF0AF075EF0AF07DEFA4
:1014E8000AF00C50085E0D50095A0E500A5A0F5057
:1014F8000B5AD8900F320E320D320C32102E66EF86
:101508000AF008C508F509C509F50AC50AF50BC5A5
:101518000BF51200A4C589F5A5C58AF5A6C58BF5F6
:10152800A7C58CF5A8C58DF5A9C58EF5F1ECF4F025
:10153800000E0501AE6FA6C5AAF5A7C5ABF5000E4E
:10154800AD6F000EAC6FB3EF0AF0AAC5D9F4ABC506
:10155800DAF4DF50AE27AA4BAB2BAC4BAD2BA8511E
:10156800AC5DA951AD59D8A0BCEF0AF0BEEF0AF0A6
:10157800A9EF0AF0F50E716FF20E726FA4C573F53C
:10158800A5C574F5410E756FF00E766FAEC577F58B
:10159800786B79EC15F01200000E106E08C511F585
:1015A80009C512F50A5011240C6E0B5012200D6E4D
:1015B80005EF0BF011C5D9F412C5DAF4DF50101A93
:1015C800114A122A000E0F6E000E0E6E10AEEFEFCB
:1015D8000AF0F1EF0AF0F3EF0AF0890E101AD8902A
:1015E80010360E4A0F2A0FBE03EF0BF00F5009E119
:1015F800080E0E5CD8A003EF0BF005EF0BF0EAEF36
:101608000AF00C50115C0D501258D8A00EEF0BF0D8
:1016180010EF0BF0DEEF0AF01050120089ECFDF02D
:101628002C0E0801B76F2E0EB86F000EB96FFC0EA6
:10163800B46FFD0EB56F010EB66F3E0EB16F280E7A
:10164800B26F000EB36F8A0E0701D76F1B0ED86FEB
:10165800000ED96F660ED46F2E0ED56F000ED66FA2
:101668001A0ED16F2A0ED26F000ED36F060EC26FFC
:101678002D0EC36F000EC46F660EBF6F2B0EC06FAA
:10168800000EC16F600EBC6F2E0EBD6F000EBE6FD8
:10169800A20EA16F2C0EA26F000EA36F12000701FD
:1016A8005251D8B45AEF0BF05CEF0BF093EF0BF0FC
:1016B80024C526F5010E276E000E286E262A68EF2F
:1016C8000BF0D89027362836262E65EF0BF0070149
:1016D800315127163251281627502810D8A477EFF1
:1016E8000BF079EF0BF093EF0BF024C51CF525C533
:1016F8001DF5DAEC12F024C526F5010E276E000E52
:10170800286E262A8BEF0BF0D89027362836262EFF
:1017180088EF0BF0275007013113285032131200BD
:101728001A0E1124086E000E1220096E3BEC14F0FC
:1017380008C517F509C518F5196A1A6A0FC5D9F445
:1017480010C5DAF4030EDE18D8A4ADEF0BF0AFEF36
:101758000BF0CBEF0BF0140E1124086E000E1220C4
:10176800096E3BEC14F00850136E0950146E156A9C
:10177800166A14C516F513C515F5146A136A1350BD
:101788001712145018121550191216501A1217C59C
:101798000FF518C510F519C511F51AC512F512007F
:1017A80014C50CF515C50DF516C50EF517C50FF5BD
:1017B80002D8EAEF0BF00500FA6E0701D151FD6E71
:1017C800D251FE6ED351FF6EFA50120002D8F9EFD3
:1017D8000BF00500FA6E0701B051FD6EB151FE6EB7
:1017E800B251FF6EFA50FF0E120014C508F515C568
:1017F80009F518C50AF519C50BF51AC50CF51BC569
:101808000DF502D813EF0CF00500FA6E0701C5516B
:10181800FD6EC651FE6EC751FF6EFA5012001200DF
:1018280014C50CF515C50DF516C50EF517C50FF53C
:1018380002D82AEF0CF00500FA6E0701D151FD6EAF
:10184800D251FE6ED351FF6EFA50120002D839EF12
:101858000CF00500FA6E0701B051FD6EB151FE6E35
:10186800B251FF6EFA50000E120014C508F515C5E6
:1018780009F518C50AF519C50BF51AC50CF51BC5E8
:101888000DF502D853EF0CF00500FA6E0701C851A8
:10189800FD6EC951FE6ECA51FF6EFA501200120059
:1018A80010C5F6F411C5F7F4000EF86E0800F550EF
:1018B8000C6E0D6A57EC14F00CC517F50DC518F52C
:1018C800104A112A12C5D9F413C5DAF4DF50146E80
:1018D80014500C6E0D6A57EC14F00CC515F50DC5B7
:1018E80016F5124A132A1550171807E1165018183A
:1018F800D8A481EF0CF083EF0CF08CEF0CF01750AC
:101908001810D8A48AEF0CF08CEF0CF054EF0CF000
:101918001550175C106E16501858116E12004D6E47
:101928004D50D8B49AEF0CF09CEF0CF0AFEF0CF0E0
:1019380052505310D8B4A3EF0CF0A5EF0CF0ACEF55
:101948000CF0550E0501716FF30E726F79EC15F0FE
:10195800020ED1EF0CF00701DA290AE1DB2908E1D0
:10196800DC2906E1DD29D8A4BCEF0CF0BEEF0CF0B1
:10197800D0EF0CF052505310D8B4C5EF0CF0C7EFAD
:101988000CF0ACEF0CF03E0E0501716FF50E726FA6
:1019980079EC15F0ACEF0CF0000E1200376E00C7B2
:1019A80038F501C739F533C53CF534C53DF52FC5C4
:1019B8001FF530C520F531C521F532C522F53CC5E6
:1019C80023F53DC524F53750A3EC06F01FC53AF5BD
:1019D80020C53BF53A503B10D8B4F5EF0CF0F7EFC3
:1019E8000CF0FBEF0CF050EC15F00FEF0DF038C5D4
:1019F80008F539C509F5010E3C240A6E000E3D2094
:101A08000B6EFF0E35240C6EFF0E36200D6E22EC89
:101A1800C9F050EC15F0120007015251D8B417EF75
:101A28000DF019EF0DF040EF0DF0700E0501716F1C
:101A3800F10E726F09C773F50AC774F50BC775F510
:101A48000CC776F579EC15F009C76AF60AC76BF684
:101A58000BC76CF60CC76DF6A00E06016E6F070E6D
:101A68006F6F000E716F010E706F65ECDFF0000E86
:101A78000701526F47EF0DF0250E0501716FF30E48
:101A8800726F79EC15F0000E0601736F000E726F1D
:101A9800120053EF0DF0084A092A0A4A0B2A08C512
:101AA800D9F409C5DAF4DF500C6E0AC5F6F40BC593
:101AB800F7F4000EF86E0800F5500C18D8A467EF7C
:101AC8000DF069EF0DF075EF0DF008C5D9F409C5F3
:101AD800DAF4DF50D8A473EF0DF075EF0DF04FEF87
:101AE8000DF008C5D9F409C5DAF4DF500C6E0AC543
:101AF800F6F40BC5F7F4000EF86E0800F5500C5C10
:101B0800086E096AD8A00906120074C6D9F475C609
:101B1800DAF4DE50DE10D8B494EF0DF096EF0DF045
:101B2800BAEF0DF074C6D9F475C6DAF4DEC476F6E9
:101B3800DDC477F676C6D9F477C6DAF4DF50D8B4C0
:101B4800A8EF0DF0AAEF0DF0BAEF0DF074C6D9F4B6
:101B580075C6DAF4DEC438F5DDC439F54FECE1F0CA
:101B680038C54DF739C54EF7BFEF0DF0000E070128
:101B78004E6F010E4D6F000E0601736F000E726FEF
:101B8800120042EC13F0040100973F0E0201046FAB
:101B9800C696A90E0401436F130E446F000E456FDD
:101BA800000E476F4691468B468F000E0201616F0B
:101BB8000E0E636F000E0001D56F000ED66F000E7B
:101BC800D86F020ED96F7F0EDA6F7F0EDB6F010EB2
:101BD800DC6F080EDD6F000EDE6F000EDF6F800E0B
:101BE800D76F8C0ED66F000ED46FAE9A9E9A010EE8
:101BF8000201056FC280C2821200080E0001B16F97
:101C0800000E0401006F000E086F000E106F000E2A
:101C1800186F209120932095000E086F000E286FF2
:101C2800000E186FC292CA92010E0201D56FA00E63
:101C3800D46FD189D18BC68E070E766FBE8CC69CA9
:101C4800260E076FD28FC290CA90000EBF6E000E8C
:101C5800C76E000EC36E000ECB6E000E046FC686F4
:101C68000401469B469F120008C5D9F409C5DAF459
:101C78000AC5DFF4084A092A0BC50AF50CC50BF595
:101C88000DC50CF50D6A08C5D9F409C5DAF40AC5FD
:101C9800DFF4084A092A0BC50AF50CC50BF50DC572
:101CA8000CF50D6A08C5D9F409C5DAF40AC5DFF4DC
:101CB800084A092A0BC50AF50CC50BF50DC50CF524
:101CC8000D6A08C5D9F409C5DAF40AC5DFF4084A6B
:101CD800092A1200000E106E000E116E000E126E10
:101CE800000E136E08A07BEF0EF07DEF0EF085EF6F
:101CF8000EF00C5010260D5011220E5012220F50CB
:101D08001322D8900C360D360E360F36D8900B327B
:101D18000A3209320832085009100A100B10D8A4E8
:101D280098EF0EF09AEF0EF076EF0EF010C508F56A
:101D380011C509F512C50AF513C50BF51200F6EC25
:101D480000F056502A6E57502B6E2C6A2D6A2BC500
:101D58002DF52AC52CF52B6A2A6A2AC508F52BC544
:101D680009F52CC50AF52DC50BF502D8C7EF0EF0FD
:101D78000500FA6E0701D451FD6ED551FE6ED6519D
:101D8800FF6EFA50120002D8D6EF0EF00500FA6E78
:101D98000701A451FD6EA551FE6EA651FF6EFA50C3
:101DA800010E120012006DC549F56EC54AF5000E08
:101DB8000701226F000E216FF5EF0EF06BC53BF5A2
:101DC8006CC53CF5490E3D6E050E3E6E6FC53FF580
:101DD80070C540F5D5EC87F03B50070121273C50F2
:101DE800222349C5F6F44AC5F7F4000EF86E080038
:101DF800F5500009D8A403EF0FF005EF0FF0E2EF5C
:101E08000EF0000E05016C6F000E6B6F12000701DB
:101E1800E429E511D8A413EF0FF015EF0FF017EF31
:101E28000FF03DEF0FF0E4511C6EE5511D6E1E6A78
:101E38001F6A1DC51FF51CC51EF51D6A1C6A660EA6
:101E48001C24146E000E1D20156E000E1E20166E2A
:101E5800000E1F20176E970E186E070E196E000ED3
:101E68001B6E030E1A6E14EC0CF0000E0701E56FE2
:101E7800E4691200066ED69E0701485107E1500E2C
:101E8800475DD8B04AEF0FF04CEF0FF063EF0FF05B
:101E980047514525016E48514621026E000E046ED9
:101EA800500E036E39EC10F0600E0124D96E0A0E44
:101EB8000220DA6E06C5DFF40701474B482B48516C
:101EC80009E1400E475DD8A06CEF0FF06EEF0FF000
:101ED8006FEF0FF0A790D68E12000D6ED69E0701F9
:101EE800445109E1500E435DD8A07DEF0FF07FEF1C
:101EF8000FF088EF0FF0B7A284EF0FF086EF0FF026
:101F08007FEF0FF0A3EC0FF0070143514125086E56
:101F180044514221096E000E0B6E500E0A6ED5EC2C
:101F28000FF0000E0824D96E090E0920DA6E0DC5CF
:101F3800DFF40701434B442BA782D68E1200C3EF70
:101F48000FF0000E4125D96E090E4221DA6EDF50DE
:101F58000201C96F010E07014125086E000E4221DA
:101F6800096E000E0B6E500E0A6ED5EC0FF008C508
:101F780041F709C542F707014307D8A044070701FD
:101F880043514411D8B4CBEF0FF0CDEF0FF0D4EF9D
:101F98000FF0B7B2D2EF0FF0D4EF0FF0A5EF0FF0BC
:101FA80012000A500B10D8B4DCEF0FF0DEEF0FF080
:101FB80002EF10F0010E0C6EE6EF0FF0D8900A3623
:101FC8000B360C2A0BAEEBEF0FF0EDEF0FF0E2EF54
:101FD8000FF00A50085C0B500958D8A0F6EF0FF024
:101FE800F8EF0FF0FCEF0FF00A50085E0B50095A9B
:101FF800D8900B320A320C2EEDEF0FF008C508F519
:1020080009C509F5120027EF10F0000E4125D96E19
:10201800090E4221DA6EDF500201C96F010E070175
:102028004125016E000E4221026E000E046E500E14
:10203800036E39EC10F001C541F702C542F70701FC
:102048004307D8A04407070143514411D8B42FEFE0
:1020580010F031EF10F038EF10F0B7B236EF10F0A3
:1020680038EF10F009EF10F0120003500410D8B444
:1020780040EF10F042EF10F066EF10F0010E056E21
:102088004AEF10F0D89003360436052A04AE4FEF15
:1020980010F051EF10F046EF10F00350015C0450BF
:1020A8000258D8A05AEF10F05CEF10F060EF10F073
:1020B8000350015E0450025AD89004320332052EB0
:1020C80051EF10F001C501F502C502F51200010E2D
:1020D800146E200E0E10106E000E0F10116E9F0E53
:1020E8001024126EFF0E1120136E135009E11A0E00
:1020F800125CD8A082EF10F084EF10F097EF10F088
:10210800D00E0E24106EFF0E0F20116E115009E133
:102118000A0E105CD8A093EF10F095EF10F097EF2F
:1021280010F0000E146E14C50EF50F6A12000701A8
:10213800E629E711D8A4A3EF10F0A5EF10F0A7EF58
:1021480010F0C9EF10F0E6511C6EE7511D6E1E6AC3
:102158001F6A1DC51FF51CC51EF51D6A1C6A1CC516
:1021680014F51DC515F51EC516F51FC517F5000E86
:10217800186E0B0E196E010E1B6E000E1A6E14EC03
:102188000CF0000E0701E76FE6691200186812C527
:1021980008F513C509F526EC11F0000E176E000EB0
:1021A800166EE7EF10F012C508F513C509F5180EFD
:1021B8000A6E050E0B6E000E0D6E010E0C6EE9EC2C
:1021C80008F0164A172A1450165C15501758D8A04C
:1021D800F0EF10F0F2EF10F0D7EF10F012C508F59D
:1021E80013C509F586EC13F0120008C5F6F409C505
:1021F800F7F4000EF86E0800F5500A18D8A407EF97
:1022080011F009EF11F00FEF11F008C508F509C535
:1022180009F525EF11F008C5F6F409C5F7F4084AE1
:10222800092A000EF86E0800F5500009D8A41FEF1F
:1022380011F021EF11F0F9EF10F0000E086E000E0A
:10224800096E120008C50AF509C50BF520EE02F063
:102258000A50D9260B50DA22DF50D8A436EF11F0F5
:1022680038EF11F048EF11F0310E0201116F320E04
:10227800126F20EE03F00A50D9260B50DA22CBC495
:10228800DFF4C892C890C88420EE02F00A50D9261C
:102298000B50DA22DF2A1200170E0501716FE90EC2
:1022A800726F79EC15F0AA0E0501716FF20E726F5C
:1022B80079EC15F0110E4E6E3C0E4D6ECB0EE82EDD
:1022C800FED74D2EFCD74E2EFAD700F0910E050101
:1022D800716FF20E726F79EC15F0170E0501716FC0
:1022E800E90E726F79EC15F012008CEF11F008C549
:1022F800D9F409C5DAF4DFC40AF5010EDE26DFC415
:102308000BF5000EDD220AC5D9F40BC5DAF4DF6A35
:1023180008C5D9F409C5DAF4DEC40AF5DDC40BF53D
:102328000AC5D9F40BC5DAF4200EDE18D8B49FEF2D
:1023380011F0A1EF11F07BEF11F01200CC0E0601A5
:10234800AF6F180EB06F720EB16FFF0EB26F010E45
:10235800B36F06ECFEF00009D8B4B5EF11F0B7EF93
:1023680011F0C5EF11F0C20E0501716FF10E726F19
:1023780079EC15F0FF0E0601BC6FFE0EBB6FCAEFBD
:0E23880011F0000E0601BC6F000EBB6F1200BC
:10239800B7A0D1EF11F0D3EF11F0E7EF11F0C7C2FA
:1023A80007F50750D8B4DBEF11F0DDEF11F0E2EFDD
:1023B80011F007503EEC0FF0E7EF11F0000E0701A7
:1023C800506F010E4F6F07EC10F007014351441195
:1023D800D8A4F1EF11F0F3EF11F0F4EF11F0A79298
:1023E8001100750E0501856F050E866F71C579F5AB
:1023F80072C57AF5000E7D6F000E7C6F000E846F3B
:10240800000E836F790E6B6F050E6C6F73C56DF5DB
:1024180074C56EF5850E6F6F050E706FD7EC0EF0F4
:1024280005017C517125D96E7D517221DA6EDF6A02
:1024380012000AC510F50BC511F508C50EF509C53A
:102448000FF537EF12F010C5D9F411C5DAF4DF50E3
:10245800126E104A112A0EC5D9F40FC5DAF412C546
:10246800DFF40E4A0F2A0C06D8A00D060C2806E148
:102478000D28D8A442EF12F044EF12F027EF12F023
:10248800120008C50AF509C50BF54DEF12F0084A08
:10249800092A08C5F6F409C5F7F4000EF86E250EEA
:1024A800F76403D00800F55005D0F6C4E9F4F7C482
:1024B800EAF4EF500009D8A464EF12F066EF12F0C6
:1024C8004BEF12F00A50085C086E0B500958096E61
:1024D80012001A0E0E24086E000E0F20096E10C589
:1024E8000AF511C50BF565EC15F00CC5D9F40DC549
:1024F800DAF4030EDE18D8A484EF12F086EF12F097
:1025080092EF12F0140E0E24086E000E0F20096EC2
:1025180012C50AF513C50BF565EC15F01200286E07
:10252800756C6C29001A0000001A0000001A0000DF
:10253800001A000000000000000000000000000079
:102548000000000000800000008000000080000003
:1025580000800000000000000000000000000000F3
:052568000064400000CA
:10256E00010E0C6E200E08180910D8B4C1EF12F02F
:10257E00C3EF12F0D6EF12F0F70E08240A6EFF0E1C
:10258E0009200B6E0B5009E1050E0A5CD8A0D2EFA4
:10259E0012F0D4EF12F0D6EF12F0000E0C6E0CC546
:1025AE0008F5096A12001C501E6E1D501F6E206A1F
:1025BE00216A1FC521F51EC520F51F6A1E6A080E69
:1025CE001E24146E000E1F20156E000E2020166E97
:1025DE00000E2120176E2A0E186EE50E196E000ED3
:1025EE001B6E060E1A6E14EC0CF012001B6E00C75A
:1025FE001CF501C71DF51CC516F51DC517F5D6EC46
:10260E0015F01E6E1B501E18D8A410EF13F012EF0B
:10261E0013F01EEF13F01906D8A01A0619501A104F
:10262E00D8A41CEF13F01EEF13F002EF13F01E50A0
:10263E0012000AC50CF50BC50DF508C50EF509C53A
:10264E000FF50CC5F6F40DC5F7F40C4A0D2A000E65
:10265E00F86E0EC5D9F40FC5DAF40E4A0F2A08002B
:10266E00F5C4DFF4DF50D8A43FEF13F041EF13F0C1
:10267E0028EF13F0120004011969C9680969C768C7
:10268E002969CB680181C6800183C682018BC68A07
:10269E00118BC88ABE88C698550E596FAA0E596FEF
:1026AE005991080E5D6F000E5E6F000E5F6F550E36
:1026BE00596FAA0E596F59811200000E1A6E000E34
:1026CE00196E75EF13F018C50BF50C6A16C50DF5DE
:1026DE0017C50EF5C1EC04F0194A1A2A1950142424
:1026EE00D96E1A501520DA6EDF50186E1850D8A415
:1026FE0083EF13F085EF13F06AEF13F0120008C5A5
:10270E000AF509C50BF520EE02F00A50D9260B503A
:10271E00DA22DF06DF50D8A497EF13F099EF13F00B
:10272E00A6EF13F0000E0201116F000E126F20EED5
:10273E0003F00A50D9260B50DA22DF50CB6E12006E
:10274E0013BEB4EF13F0135006E11204D8B0B2EF7B
:10275E0013F0B4EF13F0C2EF13F012C514F513C556
:10276E0015F5141E151E144A152A14C512F515C595
:10277E0013F5C6EF13F012C512F513C513F51200BB
:10278E00D0EF13F008C5D9F409C5DAF4DE2A000E2D
:10279E00DD2208C5D9F409C5DAF4DEC40AF5DDC4B4
:1027AE000BF50AC5D9F40BC5DAF4200EDE18D8B431
:1027BE00E3EF13F0E5EF13F0C9EF13F0120005018C
:1027CE0089510701375D3851800A4D6E05018A51D6
:1027DE00800A4D58D8B0F6EF13F0F8EF13F002EF71
:1027EE0014F0510E716FE90E726F89C573F58AC5BB
:1027FE0074F579EC15F0120090C589F591C58AF53E
:10280E00920E05018B6F050E8C6F07ECFBF0050128
:10281E00946F9451D8A416EF14F018EF14F01EEF25
:10282E0014F090C5D9F491C5DAF4DE6ADD6A1200AF
:10283E0008500910D8B426EF14F028EF14F034EF36
:10284E0014F0000EC76E000EC96EBE82BE8AC08A1C
:10285E00C692C69AC89A3AEF14F0C768C968CB6890
:10286E00C682C68AC88A120020EE01F00850D92608
:10287E000950DA22DF500A6E0A500D6E0E6A08C534
:10288E00D9F409C5DAF4DF500A6E0D500B6E0A50FA
:10289E000D6E0BC50EF50DC508F50EC509F512002A
:1028AE009F0E0C240E6EFF0E0D200F6E0F5007E1C3
:1028BE001A0E0E5CD8B066EF14F068EF14F06EEFDF
:1028CE0014F05F0E0C140C6E0D6A72EF14F00CC542
:1028DE000CF50DC50DF51200200E08100A6E000E37
:1028EE0009100B6E9F0E0A240C6EFF0E0B200D6E40
:1028FE000D500AE11A0E0C5CD8A088EF14F08BEF85
:10290E0014F0010E8CEF14F0000E086E096A12001E
:10291E00500E0501716FEF0E726F89C573F58AC582
:10292E0074F58BC575F58CC576F58FC577F590C5A5
:10293E0078F58DC579F58EC57AF579EC15F00BEC39
:10294E0017F0120008C50AF509C50BF520EE02F0C6
:10295E000A50D9260B50DA22DF6A000E0001846F6E
:10296E00000E856F100E02016A6F120E6B6FC89803
:10297E000001848F120032C515F533C516F534C526
:10298E0017F535C518F536C519F537C51AF5000E04
:10299E001B6E87ECB4F015C532F516C533F517C5A9
:1029AE0034F518C535F5120026500701E61909E170
:1029BE002750E719D8B4E6EF14F0E8EF14F0EEEF75
:1029CE0014F026C520F527C521F5ADEC07F0000E55
:1029DE000701366F010E356F120002EF15F0050E6E
:1029EE00096E0F0E086EF10EE82EFED7082EFCD7DC
:1029FE00092EFAD700F0070143514411D8A40AEF6B
:102A0E0015F00CEF15F0F6EF14F012000CC508F5EA
:102A1E000DC509F50EC50AF50FC50BF502D823EF46
:102A2E0015F00500FA6E0701D451FD6ED551FE6EFC
:102A3E00D651FF6EFA50120012009F0E08240A6E35
:102A4E00FF0E09200B6E0B500AE11A0E0A5CD8A07D
:102A5E0033EF15F036EF15F0010E37EF15F0000ECF
:102A6E00086E096A1200BF0E08240A6EFF0E0920B6
:102A7E000B6E0B500AE11A0E0A5CD8A049EF15F046
:102A8E004CEF15F0010E4DEF15F0000E086E096AB1
:102A9E00120000C719F501C71AF519C50CF51AC5AC
:102AAE000DF5F8EC15F019C512F51AC513F5000E53
:102ABE00156E010E146ECAEC10F0120008C5D9F492
:102ACE0009C5DAF40AC5DFF4084A092A0B500A6E62
:102ADE000B6A08C5D9F409C5DAF40AC5DFF4084A49
:102AEE00092A1200730E4B6E050E4C6E000E050178
:102AFE006B6F000E6C6F71C56DF572C56EF54B0E7A
:102B0E006F6F050E706FD7EC0EF012000AC508F548
:102B1E000BC509F502D89FEF15F00500FA6E0801F6
:102B2E00B151FD6EB251FE6EB351FF6EFA501200EE
:102B3E00120008500A02F3C40CF5F4C40DF5085047
:102B4E000B02F3500D2609500A02F3500D260CC548
:102B5E0008F50DC509F51200AEBAB8EF15F0BAEFCB
:102B6E0015F0C4EF15F007014F515011D8B4C2EF54
:102B7E0015F0C4EF15F0B3EF15F0120012EC0BF0D8
:102B8E0002D8D5EF15F00500FA6E0801B451FD6EAE
:102B9E00B551FE6EB651FF6EFA5012001200186853
:102BAE0016C508F517C509F5180E0A6E050E0B6E3B
:102BBE00000E0D6E010E0C6E22ECC9F018501200B4
:102BCE000CC508F50DC509F526EC11F00CC508F578
:102BDE000DC509F5000E0B6E010E0A6E8FEC16F088
:102BEE0012000CC508F50DC509F5000E0B6E000E92
:102BFE000A6E8FEC16F00CC508F50DC509F586ECBE
:102C0E0013F0120002D818EF16F00500FA6E070145
:102C1E00A451FD6EA551FE6EA651FF6EFA50000E28
:102C2E001200120002D827EF16F00500FA6E070107
:102C3E00D751FD6ED851FE6ED951FF6EFA5012006B
:102C4E0012002BEF16F0510707015151800A7F0F2A
:102C5E00D8B034EF16F036EF16F02AEF16F0120059
:102C6E0052C50AF553C50BF508C552F509C553F5FE
:102C7E000AC508F50BC509F5120054C50AF555C568
:102C8E000BF508C554F509C555F50AC508F50BC56C
:102C9E0009F51200086E0804D8A458EF16F05AEF82
:102CAE0016F05DEF16F00001D785D79512000A6E6B
:102CBE00F4EC14F0B7A266EF16F068EF16F061EFC1
:102CCE0016F00AC5C9F21200CEBA70EF16F072EF06
:102CDE0016F075EF16F0D89076EF16F0D880120039
:102CEE00CEB07CEF16F07EEF16F081EF16F0D89096
:102CFE0082EF16F0D8801200AEBA88EF16F08AEF87
:102D0E0016F08DEF16F0D8908EEF16F0D8801200D8
:102D1E000A500B10D8B496EF16F099EF16F0C08843
:102D2E009AEF16F0C0981200086E08B0A1EF16F0D8
:102D3E00A4EF16F0C282A5EF16F0C2921200086E32
:102D4E0008B0ACEF16F0AFEF16F0BE88B0EF16F08D
:102D5E00BE981200086E08B0B7EF16F0BAEF16F074
:102D6E00C280BBEF16F0C2901200FFFFFFFF5A08A1
:102D7E000E0077FFFF00FF00CF0101FF56C520F5C3
:102D8E0057C521F558EC07F009EC16F0120028ECA7
:102D9E0016F00AC508F50BC509F526EC17F012005A
:102DAE00000E086E000E096EF00E0A6EFF0E0B6E10
:102DBE001200000E086E000E096E210E0A6E000E35
:102DCE000B6E1200A60E07011C6F160E1D6F000E65
:102DDE001E6F1200FF00000E0601736F000E726F61
:102DEE00120056C520F557C521F5ADEC07F01200BF
:102DFE00000E07014A6F0A0E496F1200000E0601FF
:102E0E00736F010E726F1200FF0E0B6E0A68CEEC1E
:102E1E0016F0120049C708F54AC709F512003D0E13
:102E2E00086EF80E096E1200086E08C5C3F4120083
:102E3E00086E08C5CBF4120008680968120026EF68
:102E4E0017F012000701EB511200D3501200CF50B1
:0A2E5E001200AE9A120012001200DA
:10DF6C0000B6F89107000BF6920700BAF59307007C
:10DF7C00DFF49407001BF695070194F6850700CC97
:10DF8C00F486070058F4870700AFF388070020F7E2
:10DF9C0089070086F58A0700F2F48B070005F48CDC
:10DFAC00070074F58D0702819FE0FC407E80FC0029
:10DFBC00009F0010000000E5FF0201DDF700026683
:10DFCC00FB000325FD0004A1FE00059BFE0106F8E5
:10DFDC00F8000790FF00085BF90009E7F9000A65F3
:10DFEC00F9000B1EFD000CBFFE000DB9FE010E5515
:10DFFC00FA000F95FF01106EFC0211F5F70012BF2D
:10E00C00F90013A3FD0014E3FE0015DDFE01160359
:10E01C00F90017D1FF011861FF001905FA001A6FFA
:10E02C00F9001B9CFD001C01FF001DFBFE011E5F87
:10E03C00FA001FD5FF012015FB02210DF802221258
:10E04C00F7002328FE00241FFF002519FF01260ED0
:10E05C00F90027CDFF012866FC002941FA022AB0FD
:10E06C00F6002B21FE002C3DFF002D37FF012E6901
:10E07C00FA002FE1FF01300CFB023125F80232547B
:10E08C00F7003344FE0034CDFA0035C4FA0136CC27
:10E09C00F60037DDFF01385EFC00394BFA023A47D7
:10E0AC00F7003B3DFE003C83FE003D7DFE013EED56
:10E0BC00F8003FD9FF0040C3FC0041F4FC00424192
:10E0CC00FD004372FD0044C6FD0045F7FD0046838C
:10E0DC00F9004792FC0048CAFC0049FBFC004A4886
:10E0EC00FD004B79FD004CCDFD004DFEFD004E8D2D
:10E0FC00F9004F99FC0050D1FC005102FD00524F29
:10E10C00FD005380FD0054D4FD005505FE005697CC
:10E11C00F90057A0FC0058D8FC005909FD005A56CC
:10E12C00FD005B87FD005CDBFD005D0CFE005EA16D
:10E13C00F9005FA7FC0060DFFC006110FD00625D70
:10E14C00FD00638EFD0064E2FD006513FE0066AB0E
:10E15C00F90067AEFC0068E6FC006917FD006A6414
:10E16C00FD006B95FD006CE9FD006D1AFE006EB5AF
:10E17C00F9006FB5FC0070D3F90071DDF90072F194
:10E18C00F90073FBF900740FFA007537FA0076B8D2
:10E19C00FF0077C9F90078BCFC0079EDFC007A3AF5
:10E1AC00FD007B6BFD007CBFFD007DF0FD007E79EA
:10E1BC00F9007F8BFC00807EFB008196FB0082B611
:10E1CC00FB0083CEFB0084F6FB00854EFC0086E250
:10E1DC00F800875EFB008876FB00898EFB008AAE18
:10E1EC00FB008BC6FB008CEEFB008D46FC008ED733
:10E1FC00F8008F56FB009095FE0091B3FE0092D76D
:10E20C00FE0093F5FE009413FF009531FF0096BBC2
:10E21C00FA009777FE00986EFB009986FB009AA691
:10E22C00FB009BBEFB009CE6FB009D3EFC009ECCD5
:10E23C00F8009F4EFB00A0A7FE00A1C5FE00A2E9BE
:10E24C00FE00A307FF00A425FF00A543FF00A6D6F0
:10E25C00FA00A789FE00A8ADFE00A9CBFE00AAEF2C
:10E26C00FE00AB0DFF00AC2BFF00AD49FF00AEDF95
:10E27C00FA00AF8FFE00B0AEFE00B1CCFE00B2F0E3
:10E28C00FE00B30EFF00B42CFF00B54AFF00B6E051
:10E29C00FA00B790FE00B89AFF00B99FFF00BAA42D
:10E2AC00FF00BBA9FF00BCAEFF00BDB3FF00BE3E2C
:10E2BC00FB00BF8BFF00C04BFE00C12CFD02C23126
:10E2CC00F802C3F1FA02C404F700C59EFB01C6D1E3
:10E2DC00F700C7FEFB00C85BFF00C9E9FF02CA4597
:10E2EC00F900CB000002CC88F702CD19F901CEC59C
:10E2FC00F700CF1EFC00D033FD00D1AAFD02D2E9FD
:10E30C00F701D3BEF602D4DAF600D5D6FB01D61946
:10E31C00FA00D706FC00D8D1FE00D9EDFF02DA24B2
:10E32C00F901DB3AF702DC7BF700DD000001DEB916
:10E33C00F700DF26FC00E036FE00E12FFE02E219BA
:10E34C00F800E350F902E4F6F600E556FC01E6238A
:10E35C00FA00E70EFC00E8B1FD00E946FB02EA0119
:10E36C00F800EBFAFA02ECE8F600ED000001EE2DF5
:10E37C00FA00EF2EFC00F055FF00F1B8FD02F23A66
:10E38C00F900F3F8FF02F46EF700F5DEFB01F62E50
:10E39C00FA00F716FC00F84FFF00F903FB02FA2F06
:10E3AC00F900FBFBFF02FC61F700FD000001FEE839
:10E3BC00FA00FF36FCF0000000C3BB0000000000B8
:10E3CC000000000000000000000000000000000041
:10E3DC000000000000000000000000000000000031
:10E3EC000000000000000000000000000000000021
:10E3FC000000000000000000000000000000000011
:10E40C000000000000000000000000000000000000
:10E41C0000000000000000000000000000000000F0
:10E42C0000000000000000000000000000000000E0
:10E43C00000000000000000000424F4F543A2065DD
:10E44C0072726F7220626F6F74696E670D0A00438F
:10E45C00502F4D20626F6F742D6C6F61646572204C
:10E46C00666F72205A38302D53696D756C61746FFC
:10E47C00720D0A00F331700101FF00ED4C78B120F0
:10E48C003F3E00ED393F3E00ED39323E00ED39366E
:10E49C003E7FED393EED383EE680201A3EE0ED3908
:10E4AC003EAFED3912ED3812E640200A3E80ED39D0
:10E4BC001F3E7FED391E3E64ED39003E07ED3902FB
:10E4CC00219600CD3E01010100210000AFD34A7816
:10E4DC00D34B79D34C7DD34F7CD3503E00D34DDB03
:10E4EC004EB7CA0000C630CD500121B800CD3E0158
:10E4FC00218000CD3E01767EB7C85FED3804CB4F4E
:10E50C0028F97BED39062318EE5FED3804CB4F2844
:10E51C00F97BED3906C9D3AC182731000000D3AB19
:10E52C0000C30E00ED73AF0031AB00F5AF32B3009A
:10E53C00C5D5E5DDE5FDE5ED7BAF00E122AD0018CD
:10E54C00D53AB300219A00B72803219C004E2346EC
:10E55C00ED4398002AB1007DB42830110000060E5E
:10E56C001A77231310FA2AB1001104001922AB00F8
:10E57C00181900000000000000000000D3AB00EDF3
:10E58C0073AF0031AB00F53E0118A2DD2AB1003E9D
:10E59C00AADD77092AAF00DD7505DD74063A9E0009
:10E5AC00DD770B319F00FDE1DDE1E1D1C1F1ED45FE
:10E5BC00ED4DED45C900000000000000000000001A
:10E5CC00000400000000000000000030F601CEDF67
:10E5DC00010000000000002BF600201A00000000D3
:10E5EC00000000B2FA000A2E00000041F02CEFA14E
:10E5FC00F70244A7010000FBF5B2ECF5FF0244A7BB
:10E60C0001000000000000A9FA04A26D010000E95D
:10E61C00EA26EE86FF0292A9010000FBF5FEEF6BE5
:10E62C00FE00E22D00000005F500007DFC0250C646
:10E63C0001000069F6FFED6DFE02183F010100B903
:10E64C00F409ED7CFF01121B0000000000000084A7
:10E65C00FC0024A001000041F0FEF0FFF4020EE7E4
:10E66C000102002DF75EED81FF006ECB010000F082
:10E67C00F30000D3AD180500000000002A0400EDE3
:10E68C005B06003A0800477E12231310FA3E00186E
:10E69C00E23E00D3AD7618F9C9696F5F737461748B
:10E6AC002829203D3D20494F5F535441545F4E4F24
:10E6BC00545F53544152544544207C7C20696F5F15
:10E6CC00737461742829203D3D20494F5F53544198
:10E6DC00545F53544F50504544207C7C20696F5FED
:10E6EC00737461742829203D3D20494F5F53544178
:10E6FC00545F494E544552525550544544207C7CED
:10E70C0020696F5F737461742829203D3D20494F47
:10E71C005F535441545F50524550494E564F4B45F0
:10E72C00207C7C20696F5F737461742829203D3DC7
:10E73C0020494F5F535441545F4D4F4E49544F52F3
:10E74C0000696F5F737461742829203D3D20494F27
:10E75C005F535441545F4E4F545F53544152544590
:10E76C0044207C7C20696F5F737461742829203D80
:10E77C003D20494F5F535441545F53544F505045C3
:10E78C0044207C7C20696F5F737461742829203D60
:10E79C003D20494F5F535441545F4D4F4E49544FA8
:10E7AC0052004449534B3A204F503D25303278208B
:10E7BC00442F542F533D25642F2533642F25336468
:10E7CC0020202020202020202020202041444452A2
:10E7DC003D2530317825303278253032782028525A
:10E7EC00442049474E4F524544290A0D0044495391
:10E7FC004B3A204F503D2530327820442F542F5324
:10E80C003D25642F2533642F2533642020202020C0
:10E81C0020202020202020414444523D25303178B6
:10E82C002530327825303278202857522049474EEF
:10E83C004F524544290A0D0025733A204552524F38
:10E84C00523A20492F4F20253573202533642C2034
:10E85C00253364202825303258482C202530325856
:10E86C004829207768696C652077616974696E67DF
:10E87C0020666F7220256420282530325848290ADA
:10E88C000D004449534B3A204F503D2530327820EF
:10E89C00442F542F533D25642F2533642F25336487
:10E8AC0020782533643D25356C6420414444523D29
:10E8BC00253031782530327825303278202E2E2EA6
:10E8CC002053543D253032780A0D004449534B3ABD
:10E8DC00204F503D2530327820442F542F533D2566
:10E8EC00642F2533642F2533642020202020202002
:10E8FC002020202020414444523D253031782530C1
:10E90C00327825303278202E2E2E200A0D005344DA
:10E91C0020436172643A20726561643531323A2069
:10E92C00435243206572726F722028253034782050
:10E93C00213D20253034782C2072657472793D2568
:10E94C0064290A0D005741524E494E473A20746FC4
:10E95C006F206D616E792062616E6B7320726571D0
:10E96C007565737465642E20287265717565737492
:10E97C00206973202564290A0D00496D61676520A3
:10E98C0066696C652025732F445249564525632EC4
:10E99C0044534B2069732061737369676E656420FF
:10E9AC00746F2064726976652025630A0D00747992
:10E9BC007065202768656C702720746F20736565FF
:10E9CC0020746865206C697374206F6620617661B1
:10E9DC00696C61626C6520636F6D6D616E64730A46
:10E9EC000D005741524E494E473A20756E6B6E6F73
:10E9FC00776E20492F4F2077726974652025642C1F
:10EA0C00202564202825303258482C2025303258B7
:10EA1C0048290A0D006469736B5F696F63746C3A03
:10EA2C0020706472763D25642C20636D643D2564F2
:10EA3C002C20627566663D3078256C783A207265BC
:10EA4C00733D25640A0D00534420436172643A20DF
:10EA5C0020726561643531323A20616464723D25FF
:10EA6C00386C642C206F6666733D25642C20636FB4
:10EA7C00756E743D25640A0D005344204361726425
:10EA8C003A2077726974653531323A206164647268
:10EA9C003D25386C642C206F6666733D25642C20F4
:10EAAC00636F756E743D25640A0D005344204361F9
:10EABC0072643A2077726974653531323A20666136
:10EACC00696C656420746F2067657420746F6B6566
:10EADC006E2C2074696D656F75740A0D005B647221
:10EAEC006976655D5B2C747261636B5D5B2C736521
:10EAFC0063746F725D5B2C6C656E6774685D206F00
:10EB0C0072205B64726976652C5D4C42410044490D
:10EB1C00534B3A20207265616420442F542F533D8F
:10EB2C0025642F2533642F25336420782533643DE9
:10EB3C0025356C643A204552524F520A0D0053440D
:10EB4C0020436172643A2077726974653531323AC8
:10EB5C002074696D656F75742C20726573706F6E9F
:10EB6C00736520697320253032780A0D00534420D8
:10EB7C00436172643A20434D4435382C2052333D66
:10EB8C0025303278202530327820253032782025F7
:10EB9C0030327820253032780A0D0025733A204522
:10EBAC0052524F523A20636C6F636B2073706565E1
:10EBBC0064202564206973206E6F742073757070E7
:10EBCC006F727465640A0D00534420436172643A99
:10EBDC0020434D44382C2052373D253032782025A7
:10EBEC00303278202530327820253032782025308C
:10EBFC0032780A0D004449534B3A20207265616407
:10EC0C0020442F542F533D25642F2533642F253357
:10EC1C006420782533643D25356C643A204F4B0ACB
:10EC2C000D006469736B5F696F63746C3A20706478
:10EC3C0072763D25642C20636D643D25643A204E2C
:10EC4C006F742068616E646C65642E0A0D006469D3
:10EC5C00736B5F726561643A2020706472763D2537
:10EC6C00642C20736563746F723D256C642C206377
:10EC7C006F756E743D25640A0D006469736B5F7764
:10EC8C00726974653A20706472763D25642C207329
:10EC9C006563746F723D256C642C20636F756E74A4
:10ECAC003D25640A0D005472616E736C61746520AD
:10ECBC006D616368696E6520636F6465206F6E209B
:10ECCC0074686520746172676574206D656D6F7210
:10ECDC007900534420436172643A20434353202803
:10ECEC004361726420436170616369747920537469
:10ECFC00617475732920697320300A0D004469739F
:10ED0C00706C6179206F72206368616E6765207327
:10ED1C0070656369666965642064656275672076F1
:10ED2C0061726961626C6500534420436172643A9C
:10ED3C002077726974653531323A2043524320652D
:10ED4C0072726F72202872657472793D2564290A7B
:10ED5C000D0057726974652062797465206F72209A
:10ED6C00737472696E6720746F20746865207461A7
:10ED7C0072676574206D656D6F7279005344204322
:10ED8C006172643A204361726420706F77657220FF
:10ED9C007570207374617475732062697320697364
:10EDAC0020300A0D0072656164204D425220706162
:10EDBC0072746974696F6E207461626C6520617421
:10EDCC0020736563746F7220300A0D005344204326
:10EDDC006172643A2020726561643531323A207375
:10EDEC006563746F723D256C643A204552524F52E4
:10EDFC000A0D00446973706C617920646174612040
:10EE0C00626C6F636B2873292066726F6D20746857
:10EE1C0065205344204361726400446973706C61D3
:10EE2C007920736563746F722873292066726F6D15
:10EE3C00206469736B20696D6167652066696C6518
:10EE4C00005741524E494E473A20756E6B6E6F77A4
:10EE5C006E20492F4F20726561642025642028257F
:10EE6C0030325848290A0D00534420436172643AE9
:10EE7C002053444843206F7220534458432063610D
:10EE8C0072642064657465637465640A0D0025738F
:10EE9C003A204552524F523A206D6F6465202564DA
:10EEAC00206973206E6F7420737570706F72746547
:10EEBC00640A0D00534420436172643A20696E6900
:10EECC007469616C697A65202E2E2E2073756363CC
:10EEDC0065656465640A0D00534420436172643AAD
:10EEEC0020756E65787065637465642072657370E7
:10EEFC006F6E736520253032780A0D005344204321
:10EF0C006172643A2020726561643531323A207343
:10EF1C006563746F723D256C643A204F4B0A0D008B
:10EF2C0045786974206D6F6E69746F7220616E64C0
:10EF3C0020636F6E74696E75652065786563757492
:10EF4C00696F6E00417373657274696F6E206661D0
:10EF5C00696C65643A202573202825733A20257343
:10EF6C003A202564290A00534420436172643A20F4
:10EF7C0041434D44343120726573706F6E7365205C
:10EF8C00697320253032780A0D0053442043617296
:10EF9C00643A2077726974653531323A20746F6B3C
:10EFAC00656E20697320253032780A0D0045525267
:10EFBC004F523A2062616E6B202564206973206E7B
:10EFCC006F7420617661696C61626C652E0A0D004C
:10EFDC00534420436172643A20434D4435392072C6
:10EFEC006573706F6E736520697320253032780AF3
:10EFFC000D00446973706C61792064617461206FD9
:10F00C006E2074686520746172676574206D656D1F
:10F01C006F7279004D656D6F727920303030303001
:10F02C0030202D202530366C5848202564204B424A
:10F03C00204F4B0D0A00706172746974696F6E20F9
:10F04C0073746172747320617420736563746F726E
:10F05C0020256C640A0D00557365205241332065E0
:10F06C00787465726E616C20636C6F636B20666F75
:10F07C0072205A38300A0D00665F77726974652801
:10F08C00293A204552524F52207265733D25642C0B
:10F09C00206E3D25640A0D00665F72656164282947
:10F0AC003A204552524F52207265733D25642C20F4
:10F0BC006E3D25640A0D00696F5F696E766F6B6536
:10F0CC005F7461726765745F6370755F746561729C
:10F0DC00646F776E006661696C656420746F20776D
:10F0EC007269746520736563746F7220256C640A91
:10F0FC000D00446973706C6179207374617475735D
:10F10C00206F66207468652074617267657400698D
:10F11C006F5F696E766F6B655F7461726765745F44
:10F12C006370755F70726570617265006661696CA1
:10F13C00656420746F207265616420736563746FFD
:10F14C007220256C640A0D000A0D53442043617231
:10F15C00643A20696E697469616C697A65202E2E37
:10F16C002E0A0D00436C65617220627265616B70D2
:10F17C006F696E74206174202530346C580A0D0050
:10F18C00534420436172643A2041434D4434312C42
:10F19C002052313D253032780A0D004661696C658C
:10F1AC006420746F206F70656E205344204361722D
:10F1BC00642E2E0A0D004661696C656420746F2004
:10F1CC006D6F756E7420534420436172642E0A0D6A
:10F1DC00000A0D526573657420627920494F2070C6
:10F1EC006F72742025303258480A0D006661696CC4
:10F1FC00656420746F207265616420736563746F3D
:10F20C007220300A0D0053657420627265616B7058
:10F21C006F696E74206174202530346C580A0D00AF
:10F22C000A0D48414C5420627920494F20706F726E
:10F23C00742025303258480A0D006469736B5F697D
:10F24C006E697469616C697A65282564292E2E2E85
:10F25C000A0D00534420436172643A206E6F74208F
:10F26C007375706F70727465640A0D00534420439B
:10F27C006172643A20434D44302C2052313D25308C
:10F28C0032780A0D00202020202020202020202051
:10F29C002020202020202020202020200D007761FD
:10F2AC00697420666F722070726F6772616D6D6524
:10F2BC0072202E2E2E0D00496E76616C69642061D1
:10F2CC007267756D656E743A20272573270A0D00D9
:10F2DC005354415455533A202563256325632563C4
:10F2EC00256325632563256300257325353373203A
:10F2FC00434845434B53554D3A20253032780A0D3F
:10F30C0000556E6B6E6F776E207661726961626C00
:10F31C006520272573270A0D00427265616B706F9B
:10F32C00696E74206973206E6F74207365740A0D96
:10F33C00004D656D6F727920303030303030202DBB
:10F34C00202530366C58480D0070687973696361FC
:10F35C006C2064726976657220213D20300A0D00A4
:10F36C00416D626967756F757320636F6D6D616E4A
:10F37C00642025730A0D00427265616B706F696EB3
:10F38C0074206973202530346C580A0D00556E6B4F
:10F39C006E6F776E20636F6D6D616E643A202573AE
:10F3AC000A0D0064656275675F6661746469736BEE
:10F3BC005F766572626F736500665F6C7365656B13
:10F3CC0028293A204552524F522025640A0D006ECE
:10F3DC006F20464154333220706172746974696FC6
:10F3EC006E0A0D00446973706C61792074686973DE
:10F3FC00206D6573736167650064656275675F7323
:10F40C0064636172645F766572626F736500665FD8
:10F41C0073796E6328293A204552524F5220256445
:10F42C000A0D00696F5F696E766F6B655F74617250
:10F43C006765745F637075004D3A204D6F6E69742B
:10F44C006F722070726F6D70740A0D006465627556
:10F45C00675F6661746469736B5F7772697465006A
:10F46C0073697A656F6628706172616D7329203DCE
:10F47C003D2035006E6F204D4252207369676E61DE
:10F48C00747572650A0D00534420436172643A200E
:10F49C0074696D656F75740A0D00777269746520F7
:10F4AC005B616464725D2C76616C0A0D005B766145
:10F4BC00726961626C655D5B3D76616C75655D0062
:10F4CC0064656275675F6661746469736B5F7265AE
:10F4DC0061640064656275675F6469736B5F766510
:10F4EC0072626F73650064656275675F73646361F4
:10F4FC0072645F77726974650052657374617274BB
:10F50C00207468652073797374656D005F5F6D6539
:10F51C006D6370795F6F6E5F74617267657400699B
:10F52C006E76616C69642064726976652025640A64
:10F53C000D006E6F2076616C696420766F6C756D52
:10F54C00650A0D00534420436172643A2072656170
:10F55C0064792E0A0D0025732069732073656C6520
:10F56C00637465642E0A0D007A38305F636C6F63C8
:10F57C006B5F4E434F31494E430064656275675F64
:10F58C007364636172645F72656164005350495FB8
:10F59C0053445F636F6E666967757265004D4D55B8
:10F5AC003A2062616E6B2025303258202000646551
:10F5BC006275675F6469736B5F7772697465004E1F
:10F5CC006F20626F6F74206469736B2E0A0D0025B7
:10F5DC00733D256C642028256C5868290A0D00425F
:10F5EC007265616B20617420253034580A0D005B04
:10F5FC00616464725D5B2C6C656E6774685D00643D
:10F60C00656275675F6469736B5F726561640064E2
:10F61C00656275675F6469736B5F6D61736B0063C3
:10F62C006C656172627265616B706F696E74002ECD
:10F63C002E2F7372632F6D656D6F72792E63002A96
:10F64C002B2C3A3B3C3D3E5B5D7C223F7F0025737F
:10F65C002F445249564525632E44534B005B4C4274
:10F66C00415D5B2C6C656E6774685D004E6F20535A
:10F67C004420436172643F0A0D0025733D256420CC
:10F68C0028255868290A0D0064656275675F6661F4
:10F69C00746469736B00696F5F776169745F77720B
:10F6AC00697465004C4420484C2C2825303458484B
:10F6BC0029004F555420282530325848292C410018
:10F6CC004C442028484C292C2530325848004341C2
:10F6DC004C4C204E432C25303458480043414C4C64
:10F6EC002050452C25303458480043414C4C205078
:10F6FC004F2C25303458480043414C4C204E5A2C4A
:10F70C002530345848004C4420282530345848299A
:10F71C002C484C0064656275675F73646361726446
:10F72C00005B616464725D2C76616C756500494E9A
:10F73C0020412C28253032584829004C4420412C9B
:10F74C0028253034584829004C442028253034587A
:10F75C0048292C410043414C4C204D2C2530345829
:10F76C00480043414C4C20502C2530345848004321
:10F77C00414C4C20582C25303458480043414C4CBB
:10F78C00205A2C253034584800426F6172643A205C
:10F79C0025730A0D00646973617373656D626C6522
:10F7AC00002E2E2F7372632F696F2E63005342430A
:10F7BC0020412C25303258480041444320412C250F
:10F7CC00303258480041444420412C2530325848AE
:10F7DC00004C442042432C2530345848004A5020D9
:10F7EC004E432C2530345848004C442044452C259D
:10F7FC0030345848004A502050452C253034584855
:10F80C00004C4420484C2C2530345848004A502099
:10F81C00504F2C2530345848004C442053502C2544
:10F82C0030345848004A50204E5A2C253034584811
:10F83C00005A38533138302D3537510070726F679C
:10F84C0072616D3A0A0D0049593A20253034580A34
:10F85C000D000A0D2020202025730A0D0042433A8A
:10F86C00202530345820200050433A20253034587D
:10F87C0020200044453A20253034582020004146B1
:10F88C003A2025303458202000484C3A202530347A
:10F89C005820200053503A2025303458202000495D
:10F8AC00583A202530345820200064656275675F13
:10F8BC006469736B006C656E203C3D2032353600FC
:10F8CC0053424320412C28484C29004144432041B9
:10F8DC002C28484C290041444420412C28484C29D0
:10F8EC00004C4420412C2530325848004C442042D6
:10F8FC002C2530325848004C4420442C25303258AA
:10F90C0048004C4420482C25303258480043414C88
:10F91C004C202530345848004A5020432C25303494
:10F92C005848004A50204D2C2530345848004A5035
:10F93C0020502C2530345848004A50205A2C253061
:10F94C0034584800455820285350292C484C004521
:10F95C00582041462C414627004C4420412C28423B
:10F96C004329004C4420412C28444529004C442078
:10F97C00412C28484C29004C4420422C28484C2926
:10F98C00004C4420432C28484C29004C4420442C47
:10F99C0028484C29004C4420452C28484C29004C24
:10F9AC004420482C28484C29004C44204C2C2848F6
:10F9BC004C29004C4420284445292C41004C44201F
:10F9CC0028484C292C41004C442028484C292C42D6
:10F9DC00004C442028484C292C43004144442048E6
:10F9EC004C2C4243004C442028484C292C44004CBD
:10F9FC00442028484C292C450041444420484C2C98
:10FA0C004445004C442028484C292C48005355426E
:10FA1C0020253032584800414E4420253032584879
:10FA2C0000584F52202530325848004C442028486A
:10FA3C004C292C4C0041444420484C2C484C00414F
:10FA4C00444420484C2C5350004C4420432C25302B
:10FA5C003258004C4420452C25303258004C442060
:10FA6C004C2C253032580046415433322020200093
:10FA7C0025732530366C783A0025643A2025730AB4
:10FA8C000D0053656C6563743A200043504D444936
:10FA9C00534B5300737461636B3A0A0D00646973C2
:10FAAC006B7265616400636F6E74696E756500538B
:10FABC0055422028484C29004445432028484C29CD
:10FACC0000494E432028484C2900414E44202848E8
:10FADC004C2900584F522028484C290043502025CF
:10FAEC0030325848004A5020253034584800455888
:10FAFC002044452C484C004C442053502C484C007E
:10FB0C004A52204E432C2564004A52204E5A2C2532
:10FB1C0064002573253034783A0043504D444953E2
:10FB2C007E004572726F720A0D000D257325730AE3
:10FB3C000D0043502028484C29004A502028484C9E
:10FB4C00290053424320412C410041444320412C85
:10FB5C00410041444420412C41004C442042432C60
:10FB6C00410053424320412C420041444320412C4C
:10FB7C00420041444420412C420053424320412C3A
:10FB8C00430041444320412C430041444420412C38
:10FB9C004300505553482042430053424320412CCC
:10FBAC00440041444320412C440041444420412C16
:10FBBC00440053424320412C450041444320412CF6
:10FBCC00450041444420412C4500505553482044A5
:10FBDC004500505553482041460053424320412C88
:10FBEC00480041444320412C480041444420412CCE
:10FBFC004800525354203030480052535420313076
:10FC0C004800525354203230480052535420333061
:10FC1C004800525354203038480052535420313845
:10FC2C004800525354203238480052535420333831
:10FC3C00480053424320412C4C0041444320412C6A
:10FC4C004C0041444420412C4C0050555348204812
:10FC5C004C004A5220432C2564004A52205A2C2531
:10FC6C006400444A4E5A2C2564003C25643E0A0D1F
:10FC7C000073647265616400737461747573004C15
:10FC8C004420412C41004C4420422C41004C442047
:10FC9C00432C41004C4420442C41004C4420452C26
:10FCAC0041004C4420482C41004C44204C2C410039
:10FCBC004C4420412C42004C4420422C42004C44E9
:10FCCC0020432C42004C4420442C42004C44204500
:10FCDC002C42004C4420482C42004C44204C2C42DA
:10FCEC00004C4420412C43004C4420422C43004CFB
:10FCFC004420432C43004C4420442C43004C4420CF
:10FD0C00452C43004C4420482C43004C44204C2CA4
:10FD1C00430044454320424300494E4320424300A4
:10FD2C00504F5020424300524554204E43004C4407
:10FD3C0020412C44004C4420422C44004C44204391
:10FD4C002C44004C4420442C44004C4420452C446E
:10FD5C00004C4420482C44004C44204C2C44004C77
:10FD6C004420412C45004C4420422C45004C44205E
:10FD7C00432C45004C4420442C45004C4420452C3D
:10FD8C0045004C4420482C45004C44204C2C45004C
:10FD9C0044454320444500494E4320444500504FC0
:10FDAC00502044450052455420504500504F50209F
:10FDBC004146004C4420412C48004C4420422C48E5
:10FDCC00004C4420432C48004C4420442C48004C0C
:10FDDC004420452C48004C4420482C48004C4420DE
:10FDEC004C2C48004C4420412C4C004C4420422CC0
:10FDFC004C004C4420432C4C004C4420442C4C00D4
:10FE0C004C4420452C4C004C4420482C4C004C4479
:10FE1C00204C2C4C0044454320484C00494E432078
:10FE2C00484C00504F5020484C0052455420504FE5
:10FE3C000044454320535000494E43205350005238
:10FE4C004554204E5A002530366C58200020253061
:10FE5C003278006661743A20000D2573200D007213
:10FE6C0065736574006275663A20005355422041F3
:10FE7C0000444543204100494E43204100414E443B
:10FE8C00204100584F52204100535542204200441B
:10FE9C004543204200494E43204200414E442042FB
:10FEAC0000584F52204200535542204300444543D2
:10FEBC00204300494E43204300414E442043005808
:10FECC004F52204300524554204300535542204486
:10FEDC0000444543204400494E43204400414E44D5
:10FEEC00204400584F5220440053554220450044B2
:10FEFC004543204500494E43204500414E44204592
:10FF0C0000584F5220450053554220480044454369
:10FF1C00204800494E43204800414E442048005898
:10FF2C004F52204800535542204C00444543204C2E
:10FF3C0000494E43204C00414E44204C00584F5237
:10FF4C00204C00524554204D005245542050005234
:10FF5C004554205A004A522025640025303258203E
:10FF6C000053443A2000303A2F2F004D4F4E3E00A4
:10FF7C00737465700068656C700064756D70004317
:10FF8C0050204100524C43410052524341004350D7
:10FF9C002042004350204300435020440043502053
:10FFAC00450043502048004350204C0048414C54DD
:10FFBC00006C6C73004D0A0D000D25730020257329
:10FFCC000044414100524C410052524100434346CF
:10FFDC00005343460043504C004E4F500052455482
:10FFEC0000455858003F3F3F0064690044490045B4
:03FFFC00490000B9
:020000040001F9
:100000000BECFDF002D810EF80F00500FA6E07014E
:10001000C251FD6EC351FE6EC451FF6EFA50120004
:10002000D8B015EF80F017EF80F019EF80F0D4EF23
:1000300087F0000E0601E76F000EE66F02D82CEF86
:1000400080F00500FA6E0701B951FD6EBA51FE6EDF
:10005000BB51FF6EFA5012000601EB6F02D83CEF65
:1000600080F00500FA6E0701B651FD6EB751FE6EC5
:10007000B851FF6EFA5012000601EE6F02D84CEF35
:1000800080F00500FA6E0701AA51FD6EAB51FE6EBD
:10009000AC51FF6EFA501200D8A051EF80F053EF30
:1000A00080F05AEF80F0000E07014A6F280E496F6A
:1000B00077EF83F0000E07014A6F1E0E496F02D8DA
:1000C0006DEF80F00500FA6EB051FD6EB151FE6E1D
:1000D000B251FF6EFA50000E120070EF81F007016E
:1000E00047514811D8B477EF80F079EF80F089EF6D
:1000F00080F002D887EF80F00500FA6EB351FD6EF4
:10010000B451FE6EB551FF6EFA50FF0E120092EF21
:1001100081F002D897EF80F00500FA6EB351FD6EC2
:10012000B451FE6EB551FF6EFA50000E120092EF00
:1001300081F0F4EC14F005EC0AF00601E16F02D84E
:10014000AFEF80F00500FA6E0701B351FD6EB451B8
:10015000FE6EB551FF6EFA500601E151120092EFAA
:1001600081F007013D513E11D8B4B9EF80F0BBEFEB
:1001700080F0EAEF80F0500E3D5D0601CF6F090E72
:1001800007013E590601D06FD0BFD2EF80F0D051A9
:1001900007E1800ECF5DD8B0D0EF80F0D2EF80F0D5
:1001A000EAEF80F002D8E5EF80F00500FA6E070173
:1001B000B351FD6EB451FE6EB551FF6EFA503DC79E
:1001C000D9F43EC7DAF4DF50120007013D4B3E2B55
:1001D00092EF81F007019151D8A4F1EF80F0F3EF95
:1001E00080F00BEF81F09251D8A4F9EF80F0FBEF93
:1001F00080F00BEF81F09351D8A401EF81F003EF71
:1002000081F00BEF81F09451D8B409EF81F00BEF3E
:1002100081F092EF81F0AE0E0501716FE70E726F03
:10022000FFC673F5746B56C775F5766B55C777F5D2
:10023000786B3FC779F540C77AF556C57BF557C54A
:100240007CF553C77DF57E6B54C77FF5806B79ECE9
:1002500015F092EF81F002D83AEF81F00500FA6EC6
:100260000701B351FD6EB451FE6EB551FF6EFA50E9
:10027000EA51120092EF81F002D84CEF81F00500B4
:10028000FA6E0701B351FD6EB451FE6EB551FF6EAB
:10029000FA5029EC17F0120092EF81F04D0E050193
:1002A000716FEE0E726FEBC673F5746BEBC675F57E
:1002B000766B79EC15F0000E0701506F010E4F6F51
:1002C00002D86EEF81F00500FA6EB351FD6EB451A5
:1002D000FE6EB551FF6EFA50FF0E120092EF81F0E4
:1002E0000601EB51CF6FD06BD051000AD8B47BEF31
:1002F00081F04EEF81F0CF51400AD8B46FEF80F01B
:10030000010AD8B499EF80F0090AD8B4B1EF80F0AF
:10031000060AD8B42BEF81F0EE0AD8B43CEF81F096
:100320004EEF81F007014F515011D8B49AEF81F090
:100330009CEF81F09EEF81F009EC16F002D8ADEF52
:1003400081F00500FA6E0701A751FD6EA851FE6EFF
:10035000A951FF6EFA50000E120002D8BBEF81F0D7
:100360000500FA6E0701BC51FD6EBD51FE6EBE5117
:10037000FF6EFA50120002D8CAEF81F00500FA6E43
:100380000701A151FD6EA251FE6EA351FF6EFA50FE
:10039000010E120002D8D8EF81F00500FA6E0701B5
:1003A000AD51FD6EAE51FE6EAF51FF6EFA501200B0
:1003B000D8A0DDEF81F0DFEF81F0CAEF81F002D845
:1003C000EEEF81F00500FA6E0701B051FD6EB151FC
:1003D000FE6EB251FF6EFA50FF0E120007014F5130
:1003E0005011D8B4F6EF81F0F8EF81F0C0EF87F04C
:1003F0001DEF84F0EE5171EC0FF00701394B3A2BF1
:10040000C1EF83F007013D513E11D8B40AEF82F0ED
:100410000CEF82F045EF82F0500E3D5D0601CF6F8C
:10042000090E07013E590601D06FD0BF23EF82F0BD
:10043000D05107E1800ECF5DD8B021EF82F023EFDD
:1004400082F045EF82F03DC7D9F43EC7DAF4EEC63C
:10045000DFF407013D4B3E2B500E3D5D0601CF6F93
:10046000090E07013E590601D06F800ECF19D01139
:10047000D8A43DEF82F03FEF82F0C1EF83F0000E91
:10048000E76F010EE66FC1EF83F007019151D8A429
:100490004CEF82F04EEF82F066EF82F09251D8A4DA
:1004A00054EF82F056EF82F066EF82F09351D8A4B9
:1004B0005CEF82F05EEF82F066EF82F09451D8B488
:1004C00064EF82F066EF82F0C1EF83F0F90E050170
:1004D000716FE70E726FFFC673F5746B56C775F5D3
:1004E000766B55C777F5786B3FC779F540C77AF5D6
:1004F00056C57BF557C57CF553C77DF57E6B54C754
:100500007FF5806B79EC15F0C1EF83F0EEC656F7FE
:10051000C1EF83F0EEC655F7C1EF83F0000E07017F
:100520003F150601CF6FFF0E070140150601D06F82
:10053000EE51CF1107013F6F0601D0510701406F07
:10054000C1EF83F0EE51D06FCF6BFF0E07013F1567
:100550000601D16F000E070140150601D26FCF5181
:10056000D11107013F6F0601D051D2110701406F31
:10057000C1EF83F0EEC6FFF6030EFF19D8A4C3EF58
:1005800082F0C5EF82F0CCEF82F0500E07013D6F94
:10059000090E3E6FD0EF82F0000EE76F010EE66F9E
:1005A00007019251D8B4D7EF82F0D9EF82F0EBEF88
:1005B00082F00601FF51D8B4E0EF82F0E2EF82F062
:1005C00006EF83F0020EFF19D8B4E9EF82F0EBEFEB
:1005D00082F006EF83F007019351D8B4F2EF82F076
:1005E000F4EF82F0C1EF83F00601FF05D8B4FBEF12
:1005F00082F0FDEF82F006EF83F0030EFF19D8A41E
:1006000004EF83F006EF83F0C1EF83F0070194510C
:10061000D8B40DEF83F00FEF83F0C1EF83F056C72E
:10062000CFF6010E0601D06F000ED16FCF2B1CEF5D
:1006300083F0D890D037D137CF2F19EF83F007014F
:1006400095510601D017070196510601D117D051D7
:10065000D111D8A42EEF83F030EF83F0C1EF83F0F7
:10066000D70E0501716FE80E726FFFC673F5746BDC
:1006700056C775F5766B55C777F5786B3FC779F533
:1006800040C77AF556C57BF557C57CF553C77DF550
:100690007E6B54C77FF5806B79EC15F0C1EF83F06A
:1006A000EEC654F7C1EF83F0EEC653F7C1EF83F007
:1006B000EE519FEC08F0C1EF83F0EE0E0501716F73
:1006C000E90E726FEBC673F5746BEEC675F5766B5B
:1006D000EBC677F5786BEEC679F57A6B79EC15F0A9
:1006E000000E0701506F010E4F6FC1EF83F006013E
:1006F000EB51CF6FD06BD051000AD8B482EF83F0AA
:100700005DEF83F0CF51410AD8B4FAEF81F0090AC6
:10071000D8B402EF82F0020AD8B486EF82F0010A60
:10072000D8B48AEF82F0070AD8B48EEF82F0010ABB
:10073000D8B4BAEF82F0020AD8B450EF83F01F0A9F
:10074000D8B454EF83F0010AD8B4A2EF82F0050ABE
:10075000D8B43FEF82F0010AD8B43FEF82F0F50A37
:10076000D8B458EF83F00A0AD8B43FEF82F0010AF8
:10077000D8B43FEF82F0070AD8B43FEF82F05DEFC4
:1007800083F002D8D0EF83F00500FA6E0701A7517D
:10079000FD6EA851FE6EA951FF6EFA50000E1200B8
:1007A00002D8DEEF83F00500FA6E0701BC51FD6E42
:1007B000BD51FE6EBE51FF6EFA50120002D8EDEF31
:1007C00083F00500FA6E0701A151FD6EA251FE6E85
:1007D000A351FF6EFA50010E120002D8FBEF83F016
:1007E0000500FA6E0701AD51FD6EAE51FE6EAF51C0
:1007F000FF6EFA501200D8A000EF84F002EF84F0F0
:10080000EDEF83F0000E07014A6F320E496F0601CB
:10081000E651E711D8A40FEF84F011EF84F01DEF3B
:1008200084F007014F515011D8A419EF84F01BEF49
:1008300084F01DEF84F0C0EF87F0000E0B6E010E08
:100840000A6E8DEC15F00601E651E711D8A42BEFE6
:1008500084F02DEF84F093EF84F0A5EF87F0EEC6DF
:1008600089F505018A6BE6EC13F0A5EF87F0EEC67B
:1008700089F505018A6B0AECFCF0A5EF87F0F8EC2E
:1008800016F0000E07014A6F460E496FA5EF87F07C
:10089000000E07014A6F460E496F39513B1909E1B5
:1008A0003A513C19D8B457EF84F059EF84F064EF13
:1008B00084F0170E0501716FE90E726F79EC15F077
:1008C00039C73BF73AC73CF777ECD2F0000E070187
:1008D0004A6F5A0E496F07014D514E11D8A473EF5C
:1008E00084F075EF84F081EF84F03DECF4F00601C4
:1008F00088058911D8A47FEF84F081EF84F06BEF35
:1009000084F0A3EC0EF041EF84F0000E07014A6F73
:10091000460E496FC0EC09F0000E07014A6F320E17
:10092000496FA5EF87F0EB51CF6FD06BD051000A24
:10093000D8B49DEF84F0B4EF84F0CF51540AD8B40A
:100940002FEF84F0010AD8B437EF84F0FF0AD8B44F
:1009500085EF84F0010AD8B43FEF84F0070AD8B4D9
:1009600048EF84F0B4EF84F0000E07014C6F010EE5
:100970004B6F000E0601E26F000EE36F000EE46F96
:10098000000EE56F100E07015661C9EF84F0CBEF42
:1009900084F0DCEF84F05651040D670EF324D96E19
:1009A000080EF420DA6EDE50DE10D8A4DAEF84F000
:1009B000DCEF84F0E1EF84F0010E0701EA6F14EF41
:1009C00087F055C708F5096A5651040D650EF324E2
:1009D000D96E080EF420DA6EDEC40AF5DDC40BF51C
:1009E000A0EC15F007013F51082640510922FF0EE7
:1009F00008240601CF6FFF0E0920D06FCFC6E2F6A4
:100A0000D0C6E3F6E46BE56B07015651040D670EA3
:100A1000F324D96E080EF420DA6EDEC4E8F6DDC4E5
:100A2000E9F6E8C62BF6E9C62CF6E2C6CFF6E3C631
:100A3000D0F6E4C6D1F6E5C6D2F6070ED890060188
:100A4000CF37D037D137D237E82E1EEF85F0CFC65B
:100A50002DF6D0C62EF6D1C62FF6D2C630F6BBEC98
:100A600097F00601EA6FEA51D8B439EF85F03BEF11
:100A700085F047EF85F0C50E0501716FF30E726FBB
:100A8000EAC673F5746B79EC15F0DCEF84F0FF5176
:100A9000D8B44DEF85F04FEF85F058EF85F0020E9A
:100AA000FF19D8A456EF85F058EF85F023EF86F0B4
:100AB000E8C60CF6E9C60DF6500E0E6F090E0F6F64
:100AC000000E116F800E106FEC0E126F060E136F7A
:100AD00049ECA3F00601EA6FEA51D8A472EF85F061
:100AE00074EF85F07EEF85F0800EEC19ED11D8B42F
:100AF0007CEF85F07EEF85F08EEF85F0A40E05018A
:100B0000716FF00E726FEAC673F5746BECC675F513
:100B1000EDC676F579EC15F0DCEF84F00701925123
:100B2000D8B495EF85F097EF85F0CFEF85F094512D
:100B3000D8B49DEF85F09FEF85F0CFEF85F056C7D5
:100B4000CFF6010E0601D06F000ED16FCF2BACEFA8
:100B500085F0D890D037D137CF2FA9EF85F0070196
:100B600095510601D017070196510601D117D051B2
:100B7000D111D8A4BEEF85F0C0EF85F0CFEF85F09E
:100B8000710E0501A46FFE0EA56F500EA66F090E23
:100B9000A76F000EA96F800EA86F8EEC0AF0000EF2
:100BA0000701EA6F0601FF51D8A4D9EF85F0DBEF0A
:100BB00085F01CEF86F0070153510601D06FCF6B13
:100BC0005650D16F5750D26FD36BD46BD2C6D4F678
:100BD000D1C6D3F6D26BD16BCF51D111D56FD051D5
